### 支付USDT的地址的UTXO放在第二个位置(不是第一个位置)

```

{
    "txid": "14a41475d230ff4ac29c7cf5f4f6f7671273426caf69b7c6d44683618dd6668f",
    "vout": 2,
    "address": "mzkUX6sZ3bSqK7wk8sZmrR7wUwY3QJQVaE",
    "account": "pluto",
    "scriptPubKey": "76a914d2f9072629e2b14d5a246dfe583347ba140f45ea88ac",
    "amount": 0.00000546,
    "confirmations": 76533,
    "spendable": true,
    "solvable": true
  }, 



 {
    "txid": "706316df07b69f8ccc7ce1f5e9a07dfe4ce2af43063ac7ffd65dd1e249fca69b",
    "vout": 1,
    "address": "mrYbVednwaU2rFbnCijWAL8iFHVc7LRwsx",
    "account": "user",
    "scriptPubKey": "76a91478f8da3e8fc8864711c915bcd5a577fb0f735cfa88ac",
    "amount": 0.00009500,
    "confirmations": 75505,
    "spendable": false,
    "solvable": false
  }, 



//支付USDT的地址的UTXO放在第二个位置

omnicore-cli -conf=/root/.bitcoin/bitcoin-test.conf createrawtransaction "[{\"txid\":\"706316df07b69f8ccc7ce1f5e9a07dfe4ce2af43063ac7ffd65dd1e249fca69b\",\"vout\":1},{\"txid\":\"14a41475d230ff4ac29c7cf5f4f6f7671273426caf69b7c6d44683618dd6668f\",\"vout\":2}]" "{}"

01000000029ba6fc49e2d15dd6ffc73a0643afe24cfe7da0e9f5e17ccc8c9fb607df1663700100000000ffffffff8f66d68d618346d4c6b769af6c42731267f7f6f4f57c9cc24aff30d27514a4140200000000ffffffff0000000000



omnicore-cli -conf=/root/.bitcoin/bitcoin-test.conf omni_createpayload_simplesend 2 0.06261727

000000000000000200000000005f8bdf



omnicore-cli -conf=/root/.bitcoin/bitcoin-test.conf omni_createrawtx_opreturn 01000000029ba6fc49e2d15dd6ffc73a0643afe24cfe7da0e9f5e17ccc8c9fb607df1663700100000000ffffffff8f66d68d618346d4c6b769af6c42731267f7f6f4f57c9cc24aff30d27514a4140200000000ffffffff0000000000 000000000000000200000000005f8bdf



01000000029ba6fc49e2d15dd6ffc73a0643afe24cfe7da0e9f5e17ccc8c9fb607df1663700100000000ffffffff8f66d68d618346d4c6b769af6c42731267f7f6f4f57c9cc24aff30d27514a4140200000000ffffffff010000000000000000166a146f6d6e69000000000000000200000000005f8bdf00000000

omnicore-cli -conf=/root/.bitcoin/bitcoin-test.conf omni_createrawtx_reference 01000000029ba6fc49e2d15dd6ffc73a0643afe24cfe7da0e9f5e17ccc8c9fb607df1663700100000000ffffffff8f66d68d618346d4c6b769af6c42731267f7f6f4f57c9cc24aff30d27514a4140200000000ffffffff010000000000000000166a146f6d6e69000000000000000200000000005f8bdf00000000 muPuXyRqLBRf8Xyj28d2As8ya4iaw8XWGe

01000000029ba6fc49e2d15dd6ffc73a0643afe24cfe7da0e9f5e17ccc8c9fb607df1663700100000000ffffffff8f66d68d618346d4c6b769af6c42731267f7f6f4f57c9cc24aff30d27514a4140200000000ffffffff020000000000000000166a146f6d6e69000000000000000200000000005f8bdf22020000000000001976a914983c8b990aef5747bdef1f2bf3a49d29b19ae15788ac00000000

omnicore-cli -conf=/root/.bitcoin/bitcoin-test.conf omni_createrawtx_change 01000000029ba6fc49e2d15dd6ffc73a0643afe24cfe7da0e9f5e17ccc8c9fb607df1663700100000000ffffffff8f66d68d618346d4c6b769af6c42731267f7f6f4f57c9cc24aff30d27514a4140200000000ffffffff020000000000000000166a146f6d6e69000000000000000200000000005f8bdf22020000000000001976a914983c8b990aef5747bdef1f2bf3a49d29b19ae15788ac00000000 "[{\"txid\":\"14a41475d230ff4ac29c7cf5f4f6f7671273426caf69b7c6d44683618dd6668f\",\"vout\":2,\"scriptPubKey\":\"76a914d2f9072629e2b14d5a246dfe583347ba140f45ea88ac\",\"value\":0.00000546},{\"txid\":\"706316df07b69f8ccc7ce1f5e9a07dfe4ce2af43063ac7ffd65dd1e249fca69b\",\"vout\":1,\"scriptPubKey\":\"76a91478f8da3e8fc8864711c915bcd5a577fb0f735cfa88ac\",\"value\":0.00009500}]" mrYbVednwaU2rFbnCijWAL8iFHVc7LRwsx 0.00001



01000000029ba6fc49e2d15dd6ffc73a0643afe24cfe7da0e9f5e17ccc8c9fb607df1663700100000000ffffffff8f66d68d618346d4c6b769af6c42731267f7f6f4f57c9cc24aff30d27514a4140200000000ffffffff0334210000000000001976a91478f8da3e8fc8864711c915bcd5a577fb0f735cfa88ac0000000000000000166a146f6d6e69000000000000000200000000005f8bdf22020000000000001976a914983c8b990aef5747bdef1f2bf3a49d29b19ae15788ac00000000



omnicore-cli -conf=/root/.bitcoin/bitcoin-test.conf decoderawtransaction 01000000029ba6fc49e2d15dd6ffc73a0643afe24cfe7da0e9f5e17ccc8c9fb607df1663700100000000ffffffff8f66d68d618346d4c6b769af6c42731267f7f6f4f57c9cc24aff30d27514a4140200000000ffffffff0334210000000000001976a91478f8da3e8fc8864711c915bcd5a577fb0f735cfa88ac0000000000000000166a146f6d6e69000000000000000200000000005f8bdf22020000000000001976a914983c8b990aef5747bdef1f2bf3a49d29b19ae15788ac00000000



omnicore-cli -conf=/root/.bitcoin/bitcoin-test.conf decoderawtransaction 01000000029ba6fc49e2d15dd6ffc73a0643afe24cfe7da0e9f5e17ccc8c9fb607df1663700100000000ffffffff8f66d68d618346d4c6b769af6c42731267f7f6f4f57c9cc24aff30d27514a4140200000000ffffffff0334210000000000001976a91478f8da3e8fc8864711c915bcd5a577fb0f735cfa88ac0000000000000000166a146f6d6e69000000000000000200000000005f8bdf22020000000000001976a914983c8b990aef5747bdef1f2bf3a49d29b19ae15788ac00000000

{
  "txid": "38ef3ade5c2ae54d78336444ac2d665c8acc1a3a41820eb1c0e6b41aeb17823b",
  "hash": "38ef3ade5c2ae54d78336444ac2d665c8acc1a3a41820eb1c0e6b41aeb17823b",
  "size": 191,
  "vsize": 191,
  "version": 1,
  "locktime": 0,
  "vin": [
    {
      "txid": "706316df07b69f8ccc7ce1f5e9a07dfe4ce2af43063ac7ffd65dd1e249fca69b",
      "vout": 1,
      "scriptSig": {
        "asm": "",
        "hex": ""
      },
      "sequence": 4294967295
    }, 
    {
      "txid": "14a41475d230ff4ac29c7cf5f4f6f7671273426caf69b7c6d44683618dd6668f",
      "vout": 2,
      "scriptSig": {
        "asm": "",
        "hex": ""
      },
      "sequence": 4294967295
    }
  ],
  "vout": [
    {
      "value": 0.00008500,
      "n": 0,
      "scriptPubKey": {
        "asm": "OP_DUP OP_HASH160 78f8da3e8fc8864711c915bcd5a577fb0f735cfa OP_EQUALVERIFY OP_CHECKSIG",
        "hex": "76a91478f8da3e8fc8864711c915bcd5a577fb0f735cfa88ac",
        "reqSigs": 1,
        "type": "pubkeyhash",
        "addresses": [
          "mrYbVednwaU2rFbnCijWAL8iFHVc7LRwsx"
        ]
      }
    }, 
    {
      "value": 0.00000000,
      "n": 1,
      "scriptPubKey": {
        "asm": "OP_RETURN 6f6d6e69000000000000000200000000005f8bdf",
        "hex": "6a146f6d6e69000000000000000200000000005f8bdf",
        "type": "nulldata"
      }
    }, 
    {
      "value": 0.00000546,
      "n": 2,
      "scriptPubKey": {
        "asm": "OP_DUP OP_HASH160 983c8b990aef5747bdef1f2bf3a49d29b19ae157 OP_EQUALVERIFY OP_CHECKSIG",
        "hex": "76a914983c8b990aef5747bdef1f2bf3a49d29b19ae15788ac",
        "reqSigs": 1,
        "type": "pubkeyhash",
        "addresses": [
          "muPuXyRqLBRf8Xyj28d2As8ya4iaw8XWGe"
        ]
      }
    }
  ]
}





omnicore-cli -conf=/root/.bitcoin/bitcoin-test.conf signrawtransaction 01000000029ba6fc49e2d15dd6ffc73a0643afe24cfe7da0e9f5e17ccc8c9fb607df1663700100000000ffffffff8f66d68d618346d4c6b769af6c42731267f7f6f4f57c9cc24aff30d27514a4140200000000ffffffff0334210000000000001976a91478f8da3e8fc8864711c915bcd5a577fb0f735cfa88ac0000000000000000166a146f6d6e69000000000000000200000000005f8bdf22020000000000001976a914983c8b990aef5747bdef1f2bf3a49d29b19ae15788ac00000000 "[{\"txid\":\"14a41475d230ff4ac29c7cf5f4f6f7671273426caf69b7c6d44683618dd6668f\",\"vout\":2,\"scriptPubKey\":\"76a914d2f9072629e2b14d5a246dfe583347ba140f45ea88ac\",\"value\":0.00000546},{\"txid\":\"706316df07b69f8ccc7ce1f5e9a07dfe4ce2af43063ac7ffd65dd1e249fca69b\",\"vout\":1,\"scriptPubKey\":\"76a91478f8da3e8fc8864711c915bcd5a577fb0f735cfa88ac\",\"value\":0.00009500}]" [\"cQhGwrYFfPBrd5gRVkim9EsqKooTBWC8rSKjRuXemoayjXcSi52N\",\"cPtP7cYUvvmEF9KaSe52SuE5E8L2Sd6zbz3gJXHWWoBjCEEo2G9G\"]

{
  "hex": "01000000029ba6fc49e2d15dd6ffc73a0643afe24cfe7da0e9f5e17ccc8c9fb607df166370010000006a473044022070c6c49ecbed3ab669231343d7b0edd926fcc10cdace91595b853a18fedac3cd02201e39e0c9b98b9c97bd0be64969d5469cdea303fcd1673b6610d6d71ea9ffa6eb012103457e7713c9fa5eb7a6ce22371ff7be92bc51edf610a8eaa275c19b1a77821da0ffffffff8f66d68d618346d4c6b769af6c42731267f7f6f4f57c9cc24aff30d27514a414020000006b483045022100be8d78d6a63cbb9f867a3330990046e42d9a9179da6a1920a63dbe53d0788b890220009de6c30f8907bdbe8ee0e3dce5b2dbf863d8774180e1436190e84d1b17c39b012102aec8e91921c8296ff5e8ff6c6666cd3090b78f3552939ad396079beb478b64ddffffffff0334210000000000001976a91478f8da3e8fc8864711c915bcd5a577fb0f735cfa88ac0000000000000000166a146f6d6e69000000000000000200000000005f8bdf22020000000000001976a914983c8b990aef5747bdef1f2bf3a49d29b19ae15788ac00000000",
  "complete": true
}







omnicore-cli -conf=/root/.bitcoin/bitcoin-test.conf decoderawtransaction 01000000029ba6fc49e2d15dd6ffc73a0643afe24cfe7da0e9f5e17ccc8c9fb607df166370010000006a473044022070c6c49ecbed3ab669231343d7b0edd926fcc10cdace91595b853a18fedac3cd02201e39e0c9b98b9c97bd0be64969d5469cdea303fcd1673b6610d6d71ea9ffa6eb012103457e7713c9fa5eb7a6ce22371ff7be92bc51edf610a8eaa275c19b1a77821da0ffffffff8f66d68d618346d4c6b769af6c42731267f7f6f4f57c9cc24aff30d27514a414020000006b483045022100be8d78d6a63cbb9f867a3330990046e42d9a9179da6a1920a63dbe53d0788b890220009de6c30f8907bdbe8ee0e3dce5b2dbf863d8774180e1436190e84d1b17c39b012102aec8e91921c8296ff5e8ff6c6666cd3090b78f3552939ad396079beb478b64ddffffffff0334210000000000001976a91478f8da3e8fc8864711c915bcd5a577fb0f735cfa88ac0000000000000000166a146f6d6e69000000000000000200000000005f8bdf22020000000000001976a914983c8b990aef5747bdef1f2bf3a49d29b19ae15788ac00000000

{
  "txid": "d19152820e551e00df865797317049bd5eb05aefa4a14975bf5e19af7ec9267b",
  "hash": "d19152820e551e00df865797317049bd5eb05aefa4a14975bf5e19af7ec9267b",
  "size": 404,
  "vsize": 404,
  "version": 1,
  "locktime": 0,
  "vin": [
    {
      "txid": "706316df07b69f8ccc7ce1f5e9a07dfe4ce2af43063ac7ffd65dd1e249fca69b",
      "vout": 1,
      "scriptSig": {
        "asm": "3044022070c6c49ecbed3ab669231343d7b0edd926fcc10cdace91595b853a18fedac3cd02201e39e0c9b98b9c97bd0be64969d5469cdea303fcd1673b6610d6d71ea9ffa6eb[ALL] 03457e7713c9fa5eb7a6ce22371ff7be92bc51edf610a8eaa275c19b1a77821da0",
        "hex": "473044022070c6c49ecbed3ab669231343d7b0edd926fcc10cdace91595b853a18fedac3cd02201e39e0c9b98b9c97bd0be64969d5469cdea303fcd1673b6610d6d71ea9ffa6eb012103457e7713c9fa5eb7a6ce22371ff7be92bc51edf610a8eaa275c19b1a77821da0"
      },
      "sequence": 4294967295
    }, 
    {
      "txid": "14a41475d230ff4ac29c7cf5f4f6f7671273426caf69b7c6d44683618dd6668f",
      "vout": 2,
      "scriptSig": {
        "asm": "3045022100be8d78d6a63cbb9f867a3330990046e42d9a9179da6a1920a63dbe53d0788b890220009de6c30f8907bdbe8ee0e3dce5b2dbf863d8774180e1436190e84d1b17c39b[ALL] 02aec8e91921c8296ff5e8ff6c6666cd3090b78f3552939ad396079beb478b64dd",
        "hex": "483045022100be8d78d6a63cbb9f867a3330990046e42d9a9179da6a1920a63dbe53d0788b890220009de6c30f8907bdbe8ee0e3dce5b2dbf863d8774180e1436190e84d1b17c39b012102aec8e91921c8296ff5e8ff6c6666cd3090b78f3552939ad396079beb478b64dd"
      },
      "sequence": 4294967295
    }
  ],
  "vout": [
    {
      "value": 0.00008500,
      "n": 0,
      "scriptPubKey": {
        "asm": "OP_DUP OP_HASH160 78f8da3e8fc8864711c915bcd5a577fb0f735cfa OP_EQUALVERIFY OP_CHECKSIG",
        "hex": "76a91478f8da3e8fc8864711c915bcd5a577fb0f735cfa88ac",
        "reqSigs": 1,
        "type": "pubkeyhash",
        "addresses": [
          "mrYbVednwaU2rFbnCijWAL8iFHVc7LRwsx"
        ]
      }
    }, 
    {
      "value": 0.00000000,
      "n": 1,
      "scriptPubKey": {
        "asm": "OP_RETURN 6f6d6e69000000000000000200000000005f8bdf",
        "hex": "6a146f6d6e69000000000000000200000000005f8bdf",
        "type": "nulldata"
      }
    }, 
    {
      "value": 0.00000546,
      "n": 2,
      "scriptPubKey": {
        "asm": "OP_DUP OP_HASH160 983c8b990aef5747bdef1f2bf3a49d29b19ae157 OP_EQUALVERIFY OP_CHECKSIG",
        "hex": "76a914983c8b990aef5747bdef1f2bf3a49d29b19ae15788ac",
        "reqSigs": 1,
        "type": "pubkeyhash",
        "addresses": [
          "muPuXyRqLBRf8Xyj28d2As8ya4iaw8XWGe"
        ]
      }
    }
  ]
}







omnicore-cli -conf=/root/.bitcoin/bitcoin-test.conf sendrawtransaction  01000000029ba6fc49e2d15dd6ffc73a0643afe24cfe7da0e9f5e17ccc8c9fb607df166370010000006a473044022070c6c49ecbed3ab669231343d7b0edd926fcc10cdace91595b853a18fedac3cd02201e39e0c9b98b9c97bd0be64969d5469cdea303fcd1673b6610d6d71ea9ffa6eb012103457e7713c9fa5eb7a6ce22371ff7be92bc51edf610a8eaa275c19b1a77821da0ffffffff8f66d68d618346d4c6b769af6c42731267f7f6f4f57c9cc24aff30d27514a414020000006b483045022100be8d78d6a63cbb9f867a3330990046e42d9a9179da6a1920a63dbe53d0788b890220009de6c30f8907bdbe8ee0e3dce5b2dbf863d8774180e1436190e84d1b17c39b012102aec8e91921c8296ff5e8ff6c6666cd3090b78f3552939ad396079beb478b64ddffffffff0334210000000000001976a91478f8da3e8fc8864711c915bcd5a577fb0f735cfa88ac0000000000000000166a146f6d6e69000000000000000200000000005f8bdf22020000000000001976a914983c8b990aef5747bdef1f2bf3a49d29b19ae15788ac00000000

d19152820e551e00df865797317049bd5eb05aefa4a14975bf5e19af7ec9267b





omnicore-cli -conf=/root/.bitcoin/bitcoin-test.conf getrawtransaction d19152820e551e00df865797317049bd5eb05aefa4a14975bf5e19af7ec9267b 1



omnicore-cli  -conf=/root/.bitcoin/bitcoin-test.conf  omni_gettransaction d19152820e551e00df865797317049bd5eb05aefa4a14975bf5e19af7ec9267b

{
  "txid": "d19152820e551e00df865797317049bd5eb05aefa4a14975bf5e19af7ec9267b",
  "fee": "0.00001000",
  "sendingaddress": "mrYbVednwaU2rFbnCijWAL8iFHVc7LRwsx",
  "referenceaddress": "muPuXyRqLBRf8Xyj28d2As8ya4iaw8XWGe",
  "ismine": true,
  "version": 0,
  "type_int": 0,
  "type": "Simple Send",
  "propertyid": 2,
  "divisible": true,
  "amount": "0.06261727",
  "valid": false, //无效的USDT转账
  "invalidreason": "Sender has insufficient balance",
  "blockhash": "000000000000009614f48361cba008dc779262035009f8298036e6ba218eef31",
  "blocktime": 1561543384,
  "positioninblock": 87,
  "block": 1565288,
  "confirmations": 1
}

```






### 支付USDT的地址的UTXO放在第一个位置

```

omnicore-cli  -conf=/root/.bitcoin/bitcoin-test.conf listunspent  0 99999 [\"mzkUX6sZ3bSqK7wk8sZmrR7wUwY3QJQVaE\"]

{
    "txid": "f30937d9b8f13c2ec5d4ef4343a1e09ed316eb83ac9cc3ff17a939fea9357721",
    "vout": 0,
    "address": "mzkUX6sZ3bSqK7wk8sZmrR7wUwY3QJQVaE",
    "account": "pluto",
    "scriptPubKey": "76a914d2f9072629e2b14d5a246dfe583347ba140f45ea88ac",
    "amount": 0.00008700,
    "confirmations": 287,
    "spendable": true,
    "solvable": true
  }, 

omnicore-cli  -conf=/root/.bitcoin/bitcoin-test.conf listunspent  0 99999 [\"mrYbVednwaU2rFbnCijWAL8iFHVc7LRwsx\"]

{
    "txid": "d19152820e551e00df865797317049bd5eb05aefa4a14975bf5e19af7ec9267b",
    "vout": 0,
    "address": "mrYbVednwaU2rFbnCijWAL8iFHVc7LRwsx",
    "account": "user",
    "scriptPubKey": "76a91478f8da3e8fc8864711c915bcd5a577fb0f735cfa88ac",
    "amount": 0.00008500,
    "confirmations": 3,
    "spendable": false,
    "solvable": false
}

//支付USDT的地址的UTXO放在第一个位置
omnicore-cli -conf=/root/.bitcoin/bitcoin-test.conf createrawtransaction "[{\"txid\":\"f30937d9b8f13c2ec5d4ef4343a1e09ed316eb83ac9cc3ff17a939fea9357721\",\"vout\":0},{\"txid\":\"d19152820e551e00df865797317049bd5eb05aefa4a14975bf5e19af7ec9267b\",\"vout\":0}]" "{}"

0100000002217735a9fe39a917ffc39cac83eb16d39ee0a14343efd4c52e3cf1b8d93709f30000000000ffffffff7b26c97eaf195ebf7549a1a4ef5ab05ebd497031975786df001e550e825291d10000000000ffffffff0000000000



omnicore-cli -conf=/root/.bitcoin/bitcoin-test.conf omni_createpayload_simplesend 2 0.06261727

000000000000000200000000005f8bdf



omnicore-cli -conf=/root/.bitcoin/bitcoin-test.conf omni_createrawtx_opreturn 0100000002217735a9fe39a917ffc39cac83eb16d39ee0a14343efd4c52e3cf1b8d93709f30000000000ffffffff7b26c97eaf195ebf7549a1a4ef5ab05ebd497031975786df001e550e825291d10000000000ffffffff0000000000 000000000000000200000000005f8bdf



0100000002217735a9fe39a917ffc39cac83eb16d39ee0a14343efd4c52e3cf1b8d93709f30000000000ffffffff7b26c97eaf195ebf7549a1a4ef5ab05ebd497031975786df001e550e825291d10000000000ffffffff010000000000000000166a146f6d6e69000000000000000200000000005f8bdf00000000

omnicore-cli -conf=/root/.bitcoin/bitcoin-test.conf omni_createrawtx_reference 0100000002217735a9fe39a917ffc39cac83eb16d39ee0a14343efd4c52e3cf1b8d93709f30000000000ffffffff7b26c97eaf195ebf7549a1a4ef5ab05ebd497031975786df001e550e825291d10000000000ffffffff010000000000000000166a146f6d6e69000000000000000200000000005f8bdf00000000 muPuXyRqLBRf8Xyj28d2As8ya4iaw8XWGe

0100000002217735a9fe39a917ffc39cac83eb16d39ee0a14343efd4c52e3cf1b8d93709f30000000000ffffffff7b26c97eaf195ebf7549a1a4ef5ab05ebd497031975786df001e550e825291d10000000000ffffffff020000000000000000166a146f6d6e69000000000000000200000000005f8bdf22020000000000001976a914983c8b990aef5747bdef1f2bf3a49d29b19ae15788ac00000000

omnicore-cli -conf=/root/.bitcoin/bitcoin-test.conf omni_createrawtx_change 0100000002217735a9fe39a917ffc39cac83eb16d39ee0a14343efd4c52e3cf1b8d93709f30000000000ffffffff7b26c97eaf195ebf7549a1a4ef5ab05ebd497031975786df001e550e825291d10000000000ffffffff020000000000000000166a146f6d6e69000000000000000200000000005f8bdf22020000000000001976a914983c8b990aef5747bdef1f2bf3a49d29b19ae15788ac00000000 "[{\"txid\":\"f30937d9b8f13c2ec5d4ef4343a1e09ed316eb83ac9cc3ff17a939fea9357721\",\"vout\":0,\"scriptPubKey\":\"76a914d2f9072629e2b14d5a246dfe583347ba140f45ea88ac\",\"value\":0.00008700},{\"txid\":\"d19152820e551e00df865797317049bd5eb05aefa4a14975bf5e19af7ec9267b\",\"vout\":0,\"scriptPubKey\":\"76a91478f8da3e8fc8864711c915bcd5a577fb0f735cfa88ac\",\"value\":0.00008500}]" mzkUX6sZ3bSqK7wk8sZmrR7wUwY3QJQVaE 0.00001 



0100000002217735a9fe39a917ffc39cac83eb16d39ee0a14343efd4c52e3cf1b8d93709f30000000000ffffffff7b26c97eaf195ebf7549a1a4ef5ab05ebd497031975786df001e550e825291d10000000000ffffffff03263d0000000000001976a914d2f9072629e2b14d5a246dfe583347ba140f45ea88ac0000000000000000166a146f6d6e69000000000000000200000000005f8bdf22020000000000001976a914983c8b990aef5747bdef1f2bf3a49d29b19ae15788ac00000000



omnicore-cli -conf=/root/.bitcoin/bitcoin-test.conf decoderawtransaction 0100000002217735a9fe39a917ffc39cac83eb16d39ee0a14343efd4c52e3cf1b8d93709f30000000000ffffffff7b26c97eaf195ebf7549a1a4ef5ab05ebd497031975786df001e550e825291d10000000000ffffffff03263d0000000000001976a914d2f9072629e2b14d5a246dfe583347ba140f45ea88ac0000000000000000166a146f6d6e69000000000000000200000000005f8bdf22020000000000001976a914983c8b990aef5747bdef1f2bf3a49d29b19ae15788ac00000000



{
  "txid": "38ef3ade5c2ae54d78336444ac2d665c8acc1a3a41820eb1c0e6b41aeb17823b",
  "hash": "38ef3ade5c2ae54d78336444ac2d665c8acc1a3a41820eb1c0e6b41aeb17823b",
  "size": 191,
  "vsize": 191,
  "version": 1,
  "locktime": 0,
  "vin": [
    {
      "txid": "706316df07b69f8ccc7ce1f5e9a07dfe4ce2af43063ac7ffd65dd1e249fca69b",
      "vout": 1,
      "scriptSig": {
        "asm": "",
        "hex": ""
      },
      "sequence": 4294967295
    }, 
    {
      "txid": "14a41475d230ff4ac29c7cf5f4f6f7671273426caf69b7c6d44683618dd6668f",
      "vout": 2,
      "scriptSig": {
        "asm": "",
        "hex": ""
      },
      "sequence": 4294967295
    }
  ],
  "vout": [
    {
      "value": 0.00008500,
      "n": 0,
      "scriptPubKey": {
        "asm": "OP_DUP OP_HASH160 78f8da3e8fc8864711c915bcd5a577fb0f735cfa OP_EQUALVERIFY OP_CHECKSIG",
        "hex": "76a91478f8da3e8fc8864711c915bcd5a577fb0f735cfa88ac",
        "reqSigs": 1,
        "type": "pubkeyhash",
        "addresses": [
          "mrYbVednwaU2rFbnCijWAL8iFHVc7LRwsx"
        ]
      }
    }, 
    {
      "value": 0.00000000,
      "n": 1,
      "scriptPubKey": {
        "asm": "OP_RETURN 6f6d6e69000000000000000200000000005f8bdf",
        "hex": "6a146f6d6e69000000000000000200000000005f8bdf",
        "type": "nulldata"
      }
    }, 
    {
      "value": 0.00000546,
      "n": 2,
      "scriptPubKey": {
        "asm": "OP_DUP OP_HASH160 983c8b990aef5747bdef1f2bf3a49d29b19ae157 OP_EQUALVERIFY OP_CHECKSIG",
        "hex": "76a914983c8b990aef5747bdef1f2bf3a49d29b19ae15788ac",
        "reqSigs": 1,
        "type": "pubkeyhash",
        "addresses": [
          "muPuXyRqLBRf8Xyj28d2As8ya4iaw8XWGe"
        ]
      }
    }
  ]
}





omnicore-cli -conf=/root/.bitcoin/bitcoin-test.conf signrawtransaction 0100000002217735a9fe39a917ffc39cac83eb16d39ee0a14343efd4c52e3cf1b8d93709f30000000000ffffffff7b26c97eaf195ebf7549a1a4ef5ab05ebd497031975786df001e550e825291d10000000000ffffffff03263d0000000000001976a914d2f9072629e2b14d5a246dfe583347ba140f45ea88ac0000000000000000166a146f6d6e69000000000000000200000000005f8bdf22020000000000001976a914983c8b990aef5747bdef1f2bf3a49d29b19ae15788ac00000000 "[{\"txid\":\"f30937d9b8f13c2ec5d4ef4343a1e09ed316eb83ac9cc3ff17a939fea9357721\",\"vout\":0,\"scriptPubKey\":\"76a914d2f9072629e2b14d5a246dfe583347ba140f45ea88ac\",\"value\":0.00008700},{\"txid\":\"d19152820e551e00df865797317049bd5eb05aefa4a14975bf5e19af7ec9267b\",\"vout\":0,\"scriptPubKey\":\"76a91478f8da3e8fc8864711c915bcd5a577fb0f735cfa88ac\",\"value\":0.00008500}]" [\"cQhGwrYFfPBrd5gRVkim9EsqKooTBWC8rSKjRuXemoayjXcSi52N\",\"cPtP7cYUvvmEF9KaSe52SuE5E8L2Sd6zbz3gJXHWWoBjCEEo2G9G\"]

{
  "hex": "0100000002217735a9fe39a917ffc39cac83eb16d39ee0a14343efd4c52e3cf1b8d93709f3000000006a473044022061902a4c0e765aa5352dd8692cf6f78268c977b9cb82915e2271648478bf668b022008ca9ea718d6e6326af52d8494d9046b45462b830c6927034d1542e7d671248c012102aec8e91921c8296ff5e8ff6c6666cd3090b78f3552939ad396079beb478b64ddffffffff7b26c97eaf195ebf7549a1a4ef5ab05ebd497031975786df001e550e825291d1000000006a47304402205ae788364d694fb82e15eceb9f842784ae1d09641f0ee511b67d2496e7f81ac4022027b9eab75827d7a00f276ec0ce87a0be19538d7acfd7a518b1efb97840c7bec9012103457e7713c9fa5eb7a6ce22371ff7be92bc51edf610a8eaa275c19b1a77821da0ffffffff03263d0000000000001976a914d2f9072629e2b14d5a246dfe583347ba140f45ea88ac0000000000000000166a146f6d6e69000000000000000200000000005f8bdf22020000000000001976a914983c8b990aef5747bdef1f2bf3a49d29b19ae15788ac00000000",
  "complete": true
}







omnicore-cli -conf=/root/.bitcoin/bitcoin-test.conf decoderawtransaction 0100000002217735a9fe39a917ffc39cac83eb16d39ee0a14343efd4c52e3cf1b8d93709f3000000006a473044022061902a4c0e765aa5352dd8692cf6f78268c977b9cb82915e2271648478bf668b022008ca9ea718d6e6326af52d8494d9046b45462b830c6927034d1542e7d671248c012102aec8e91921c8296ff5e8ff6c6666cd3090b78f3552939ad396079beb478b64ddffffffff7b26c97eaf195ebf7549a1a4ef5ab05ebd497031975786df001e550e825291d1000000006a47304402205ae788364d694fb82e15eceb9f842784ae1d09641f0ee511b67d2496e7f81ac4022027b9eab75827d7a00f276ec0ce87a0be19538d7acfd7a518b1efb97840c7bec9012103457e7713c9fa5eb7a6ce22371ff7be92bc51edf610a8eaa275c19b1a77821da0ffffffff03263d0000000000001976a914d2f9072629e2b14d5a246dfe583347ba140f45ea88ac0000000000000000166a146f6d6e69000000000000000200000000005f8bdf22020000000000001976a914983c8b990aef5747bdef1f2bf3a49d29b19ae15788ac00000000

{
  "txid": "25b984207f72eb6469d7dc5f904da338607a5495f42bb88b8344f1c1e236a2d9",
  "hash": "25b984207f72eb6469d7dc5f904da338607a5495f42bb88b8344f1c1e236a2d9",
  "size": 403,
  "vsize": 403,
  "version": 1,
  "locktime": 0,
  "vin": [
    {
      "txid": "f30937d9b8f13c2ec5d4ef4343a1e09ed316eb83ac9cc3ff17a939fea9357721",
      "vout": 0,
      "scriptSig": {
        "asm": "3044022061902a4c0e765aa5352dd8692cf6f78268c977b9cb82915e2271648478bf668b022008ca9ea718d6e6326af52d8494d9046b45462b830c6927034d1542e7d671248c[ALL] 02aec8e91921c8296ff5e8ff6c6666cd3090b78f3552939ad396079beb478b64dd",
        "hex": "473044022061902a4c0e765aa5352dd8692cf6f78268c977b9cb82915e2271648478bf668b022008ca9ea718d6e6326af52d8494d9046b45462b830c6927034d1542e7d671248c012102aec8e91921c8296ff5e8ff6c6666cd3090b78f3552939ad396079beb478b64dd"
      },
      "sequence": 4294967295
    }, 
    {
      "txid": "d19152820e551e00df865797317049bd5eb05aefa4a14975bf5e19af7ec9267b",
      "vout": 0,
      "scriptSig": {
        "asm": "304402205ae788364d694fb82e15eceb9f842784ae1d09641f0ee511b67d2496e7f81ac4022027b9eab75827d7a00f276ec0ce87a0be19538d7acfd7a518b1efb97840c7bec9[ALL] 03457e7713c9fa5eb7a6ce22371ff7be92bc51edf610a8eaa275c19b1a77821da0",
        "hex": "47304402205ae788364d694fb82e15eceb9f842784ae1d09641f0ee511b67d2496e7f81ac4022027b9eab75827d7a00f276ec0ce87a0be19538d7acfd7a518b1efb97840c7bec9012103457e7713c9fa5eb7a6ce22371ff7be92bc51edf610a8eaa275c19b1a77821da0"
      },
      "sequence": 4294967295
    }
  ],
  "vout": [
    {
      "value": 0.00015654,
      "n": 0,
      "scriptPubKey": {
        "asm": "OP_DUP OP_HASH160 d2f9072629e2b14d5a246dfe583347ba140f45ea OP_EQUALVERIFY OP_CHECKSIG",
        "hex": "76a914d2f9072629e2b14d5a246dfe583347ba140f45ea88ac",
        "reqSigs": 1,
        "type": "pubkeyhash",
        "addresses": [
          "mzkUX6sZ3bSqK7wk8sZmrR7wUwY3QJQVaE"
        ]
      }
    }, 
    {
      "value": 0.00000000,
      "n": 1,
      "scriptPubKey": {
        "asm": "OP_RETURN 6f6d6e69000000000000000200000000005f8bdf",
        "hex": "6a146f6d6e69000000000000000200000000005f8bdf",
        "type": "nulldata"
      }
    }, 
    {
      "value": 0.00000546,
      "n": 2,
      "scriptPubKey": {
        "asm": "OP_DUP OP_HASH160 983c8b990aef5747bdef1f2bf3a49d29b19ae157 OP_EQUALVERIFY OP_CHECKSIG",
        "hex": "76a914983c8b990aef5747bdef1f2bf3a49d29b19ae15788ac",
        "reqSigs": 1,
        "type": "pubkeyhash",
        "addresses": [
          "muPuXyRqLBRf8Xyj28d2As8ya4iaw8XWGe"
        ]
      }
    }
  ]
}









omnicore-cli -conf=/root/.bitcoin/bitcoin-test.conf sendrawtransaction  0100000002217735a9fe39a917ffc39cac83eb16d39ee0a14343efd4c52e3cf1b8d93709f3000000006a473044022061902a4c0e765aa5352dd8692cf6f78268c977b9cb82915e2271648478bf668b022008ca9ea718d6e6326af52d8494d9046b45462b830c6927034d1542e7d671248c012102aec8e91921c8296ff5e8ff6c6666cd3090b78f3552939ad396079beb478b64ddffffffff7b26c97eaf195ebf7549a1a4ef5ab05ebd497031975786df001e550e825291d1000000006a47304402205ae788364d694fb82e15eceb9f842784ae1d09641f0ee511b67d2496e7f81ac4022027b9eab75827d7a00f276ec0ce87a0be19538d7acfd7a518b1efb97840c7bec9012103457e7713c9fa5eb7a6ce22371ff7be92bc51edf610a8eaa275c19b1a77821da0ffffffff03263d0000000000001976a914d2f9072629e2b14d5a246dfe583347ba140f45ea88ac0000000000000000166a146f6d6e69000000000000000200000000005f8bdf22020000000000001976a914983c8b990aef5747bdef1f2bf3a49d29b19ae15788ac00000000

25b984207f72eb6469d7dc5f904da338607a5495f42bb88b8344f1c1e236a2d9





omnicore-cli -conf=/root/.bitcoin/bitcoin-test.conf getrawtransaction 25b984207f72eb6469d7dc5f904da338607a5495f42bb88b8344f1c1e236a2d9 1



omnicore-cli  -conf=/root/.bitcoin/bitcoin-test.conf  omni_gettransaction 25b984207f72eb6469d7dc5f904da338607a5495f42bb88b8344f1c1e236a2d9



{
  "txid": "25b984207f72eb6469d7dc5f904da338607a5495f42bb88b8344f1c1e236a2d9",
  "fee": "0.00001000",
  "sendingaddress": "mzkUX6sZ3bSqK7wk8sZmrR7wUwY3QJQVaE",
  "referenceaddress": "muPuXyRqLBRf8Xyj28d2As8ya4iaw8XWGe",
  "ismine": true,
  "version": 0,
  "type_int": 0,
  "type": "Simple Send",
  "propertyid": 2,
  "divisible": true,
  "amount": "0.06261727",
  "valid": true,   //有效的USDT转账
  "blockhash": "00000000000006cadc810a31eceb58a2685e2a4c8952e23f6ef31390336262e9",
  "blocktime": 1561544961,
  "positioninblock": 59,
  "block": 1565296,
  "confirmations": 1
}


```







## 总结

- USDT使用其他地址支付手续费时, 默认解析第一个地址(vin中的UTXO所属的地址)为USDT支付地址 